{
  "_format": "hh-sol-artifact-1",
  "contractName": "AIPoweredTrader",
  "sourceName": "contracts/AIPoweredTrader.sol",
  "abi": [
    {
      "inputs": [
        {
          "internalType": "address",
          "name": "_pangolinRouter",
          "type": "address"
        },
        {
          "internalType": "address",
          "name": "_priceOracle",
          "type": "address"
        }
      ],
      "stateMutability": "nonpayable",
      "type": "constructor"
    },
    {
      "inputs": [
        {
          "internalType": "uint256",
          "name": "confidence",
          "type": "uint256"
        }
      ],
      "name": "AIPredictionInvalid",
      "type": "error"
    },
    {
      "anonymous": false,
      "inputs": [
        {
          "indexed": true,
          "internalType": "address",
          "name": "token",
          "type": "address"
        },
        {
          "indexed": false,
          "internalType": "uint256",
          "name": "amount",
          "type": "uint256"
        },
        {
          "indexed": true,
          "internalType": "address",
          "name": "recipient",
          "type": "address"
        }
      ],
      "name": "EmergencyWithdraw",
      "type": "event"
    },
    {
      "anonymous": false,
      "inputs": [
        {
          "indexed": true,
          "internalType": "address",
          "name": "previousOwner",
          "type": "address"
        },
        {
          "indexed": true,
          "internalType": "address",
          "name": "newOwner",
          "type": "address"
        }
      ],
      "name": "OwnershipTransferred",
      "type": "event"
    },
    {
      "anonymous": false,
      "inputs": [
        {
          "indexed": false,
          "internalType": "address",
          "name": "account",
          "type": "address"
        }
      ],
      "name": "Paused",
      "type": "event"
    },
    {
      "anonymous": false,
      "inputs": [
        {
          "indexed": true,
          "internalType": "address",
          "name": "user",
          "type": "address"
        },
        {
          "indexed": true,
          "internalType": "address",
          "name": "tokenIn",
          "type": "address"
        },
        {
          "indexed": true,
          "internalType": "address",
          "name": "tokenOut",
          "type": "address"
        },
        {
          "indexed": false,
          "internalType": "uint256",
          "name": "amountIn",
          "type": "uint256"
        },
        {
          "indexed": false,
          "internalType": "uint256",
          "name": "amountOut",
          "type": "uint256"
        },
        {
          "indexed": false,
          "internalType": "uint256",
          "name": "aiConfidence",
          "type": "uint256"
        },
        {
          "indexed": false,
          "internalType": "uint256",
          "name": "aiPredictedPrice",
          "type": "uint256"
        }
      ],
      "name": "TradeExecuted",
      "type": "event"
    },
    {
      "anonymous": false,
      "inputs": [
        {
          "indexed": false,
          "internalType": "address",
          "name": "account",
          "type": "address"
        }
      ],
      "name": "Unpaused",
      "type": "event"
    },
    {
      "inputs": [],
      "name": "TRADE_DEADLINE_BUFFER",
      "outputs": [
        {
          "internalType": "uint256",
          "name": "",
          "type": "uint256"
        }
      ],
      "stateMutability": "view",
      "type": "function"
    },
    {
      "inputs": [],
      "name": "WAVAX",
      "outputs": [
        {
          "internalType": "address",
          "name": "",
          "type": "address"
        }
      ],
      "stateMutability": "view",
      "type": "function"
    },
    {
      "inputs": [
        {
          "internalType": "address",
          "name": "token",
          "type": "address"
        },
        {
          "internalType": "address",
          "name": "recipient",
          "type": "address"
        }
      ],
      "name": "emergencyWithdraw",
      "outputs": [],
      "stateMutability": "nonpayable",
      "type": "function"
    },
    {
      "inputs": [],
      "name": "getAIPredictionStatus",
      "outputs": [
        {
          "internalType": "bool",
          "name": "isValid",
          "type": "bool"
        },
        {
          "internalType": "uint256",
          "name": "confidence",
          "type": "uint256"
        }
      ],
      "stateMutability": "view",
      "type": "function"
    },
    {
      "inputs": [],
      "name": "owner",
      "outputs": [
        {
          "internalType": "address",
          "name": "",
          "type": "address"
        }
      ],
      "stateMutability": "view",
      "type": "function"
    },
    {
      "inputs": [],
      "name": "pangolinRouter",
      "outputs": [
        {
          "internalType": "contract IPangolinRouter",
          "name": "",
          "type": "address"
        }
      ],
      "stateMutability": "view",
      "type": "function"
    },
    {
      "inputs": [],
      "name": "pause",
      "outputs": [],
      "stateMutability": "nonpayable",
      "type": "function"
    },
    {
      "inputs": [],
      "name": "paused",
      "outputs": [
        {
          "internalType": "bool",
          "name": "",
          "type": "bool"
        }
      ],
      "stateMutability": "view",
      "type": "function"
    },
    {
      "inputs": [],
      "name": "priceOracle",
      "outputs": [
        {
          "internalType": "contract PriceOracle",
          "name": "",
          "type": "address"
        }
      ],
      "stateMutability": "view",
      "type": "function"
    },
    {
      "inputs": [],
      "name": "renounceOwnership",
      "outputs": [],
      "stateMutability": "nonpayable",
      "type": "function"
    },
    {
      "inputs": [
        {
          "internalType": "address",
          "name": "tokenOut",
          "type": "address"
        },
        {
          "internalType": "uint256",
          "name": "amountOutMin",
          "type": "uint256"
        },
        {
          "internalType": "uint256",
          "name": "deadline",
          "type": "uint256"
        }
      ],
      "name": "tradeExactAVAXForTokens",
      "outputs": [],
      "stateMutability": "payable",
      "type": "function"
    },
    {
      "inputs": [
        {
          "internalType": "address",
          "name": "tokenIn",
          "type": "address"
        },
        {
          "internalType": "uint256",
          "name": "amountIn",
          "type": "uint256"
        },
        {
          "internalType": "uint256",
          "name": "amountOutMin",
          "type": "uint256"
        },
        {
          "internalType": "uint256",
          "name": "deadline",
          "type": "uint256"
        }
      ],
      "name": "tradeExactTokensForAVAX",
      "outputs": [],
      "stateMutability": "nonpayable",
      "type": "function"
    },
    {
      "inputs": [
        {
          "internalType": "address",
          "name": "tokenIn",
          "type": "address"
        },
        {
          "internalType": "address",
          "name": "tokenOut",
          "type": "address"
        },
        {
          "internalType": "uint256",
          "name": "amountIn",
          "type": "uint256"
        },
        {
          "internalType": "uint256",
          "name": "amountOutMin",
          "type": "uint256"
        },
        {
          "internalType": "uint256",
          "name": "deadline",
          "type": "uint256"
        }
      ],
      "name": "tradeExactTokensForTokens",
      "outputs": [],
      "stateMutability": "nonpayable",
      "type": "function"
    },
    {
      "inputs": [
        {
          "internalType": "address",
          "name": "newOwner",
          "type": "address"
        }
      ],
      "name": "transferOwnership",
      "outputs": [],
      "stateMutability": "nonpayable",
      "type": "function"
    },
    {
      "inputs": [],
      "name": "unpause",
      "outputs": [],
      "stateMutability": "nonpayable",
      "type": "function"
    },
    {
      "stateMutability": "payable",
      "type": "receive"
    }
  ],
  "bytecode": "0x60e06040523480156200001157600080fd5b506040516200245838038062002458833981016040819052620000349162000262565b6200003f33620001f5565b600180556002805460ff191690556001600160a01b038216158015906200006e57506001600160a01b03811615155b620000b25760405162461bcd60e51b815260206004820152600f60248201526e496e76616c6964206164647265737360881b60448201526064015b60405180910390fd5b6001600160a01b03808316608081905290821660a052604080516339d94ae160e11b81529051600092916373b295c29160048083019260209291908290030181865afa92505050801562000125575060408051601f3d908101601f1916820190925262000122918101906200029a565b60015b620001dd57826001600160a01b031663ad5c46486040518163ffffffff1660e01b8152600401602060405180830381865afa92505050801562000187575060408051601f3d908101601f1916820190925262000184918101906200029a565b60015b620001d55760405162461bcd60e51b815260206004820152601960248201527f526f75746572206d697373696e672057415641582f57455448000000000000006044820152606401620000a9565b9050620001e0565b90505b6001600160a01b031660c05250620002bf9050565b600080546001600160a01b038381166001600160a01b0319831681178455604051919092169283917f8be0079c531659141344cd1fd0a4f28419497f9722a3daafe3b4186f6b6457e09190a35050565b80516001600160a01b03811681146200025d57600080fd5b919050565b600080604083850312156200027657600080fd5b620002818362000245565b9150620002916020840162000245565b90509250929050565b600060208284031215620002ad57600080fd5b620002b88262000245565b9392505050565b60805160a05160c0516120cf620003896000396000818161024a015281816108300152610e3d01526000818161015d0152818161031b0152818161039f015281816105030152818161058b0152818161063301528181610c8301528181610d0b01528181610d6c0152818161112e015281816111b601526112170152600081816101be015281816106ef0152818161077f015281816107b40152818161088a01528181610ecb015281816112d30152818161136301528181611398015261144e01526120cf6000f3fe6080604052600436106100ec5760003560e01c8063715018a61161008a5780638da5cb5b116100595780638da5cb5b14610294578063abd84c67146102b2578063f1772113146102d2578063f2fde38b146102f657600080fd5b8063715018a61461022357806373b295c2146102385780638456cb591461026c5780638ad9bcc01461028157600080fd5b80633f4ba83a116100c65780633f4ba83a146101975780635af0cd90146101ac5780635c975abb146101e05780636382d9ad1461020357600080fd5b806309dfcadc146100f8578063186891b3146101295780632630c12f1461014b57600080fd5b366100f357005b600080fd5b34801561010457600080fd5b5061010d610316565b6040805192151583526020830191909152015b60405180910390f35b34801561013557600080fd5b50610149610144366004611c35565b61042c565b005b34801561015757600080fd5b5061017f7f000000000000000000000000000000000000000000000000000000000000000081565b6040516001600160a01b039091168152602001610120565b3480156101a357600080fd5b506101496109a6565b3480156101b857600080fd5b5061017f7f000000000000000000000000000000000000000000000000000000000000000081565b3480156101ec57600080fd5b5060025460ff166040519015158152602001610120565b34801561020f57600080fd5b5061014961021e366004611c6e565b6109b8565b34801561022f57600080fd5b50610149610b9e565b34801561024457600080fd5b5061017f7f000000000000000000000000000000000000000000000000000000000000000081565b34801561027857600080fd5b50610149610bb0565b61014961028f366004611ca1565b610bc0565b3480156102a057600080fd5b506000546001600160a01b031661017f565b3480156102be57600080fd5b506101496102cd366004611cd4565b610fe5565b3480156102de57600080fd5b506102e86104b081565b604051908152602001610120565b34801561030257600080fd5b50610149610311366004611d21565b61156a565b6000807f00000000000000000000000000000000000000000000000000000000000000006001600160a01b0316639853fc386040518163ffffffff1660e01b8152600401602060405180830381865afa158015610377573d6000803e3d6000fd5b505050506040513d601f19601f8201168201806040525081019061039b9190611d53565b91507f00000000000000000000000000000000000000000000000000000000000000006001600160a01b0316639f615ee16040518163ffffffff1660e01b815260040160a060405180830381865afa1580156103fb573d6000803e3d6000fd5b505050506040513d601f19601f8201168201806040525081019061041f9190611d6e565b5094959194509092505050565b6104346115e3565b61043c61163c565b600083116104915760405162461bcd60e51b815260206004820152601d60248201527f416d6f756e74206d7573742062652067726561746572207468616e203000000060448201526064015b60405180910390fd5b6001600160a01b0384166104b75760405162461bcd60e51b815260040161048890611db7565b4281116104d65760405162461bcd60e51b815260040161048890611de6565b6104e26104b042611e1d565b8111156105015760405162461bcd60e51b815260040161048890611e44565b7f00000000000000000000000000000000000000000000000000000000000000006001600160a01b0316639853fc386040518163ffffffff1660e01b8152600401602060405180830381865afa15801561055f573d6000803e3d6000fd5b505050506040513d601f19601f820116820180604052508101906105839190611d53565b61062e5760007f00000000000000000000000000000000000000000000000000000000000000006001600160a01b0316639f615ee16040518163ffffffff1660e01b815260040160a060405180830381865afa1580156105e7573d6000803e3d6000fd5b505050506040513d601f19601f8201168201806040525081019061060b9190611d6e565b505050915050806040516320bda7a960e01b815260040161048891815260200190565b6000807f00000000000000000000000000000000000000000000000000000000000000006001600160a01b0316639f615ee16040518163ffffffff1660e01b815260040160a060405180830381865afa15801561068f573d6000803e3d6000fd5b505050506040513d601f19601f820116820180604052508101906106b39190611d6e565b509294509092506106d29150506001600160a01b038716333088611682565b604051636eb1769f60e11b81523060048201526001600160a01b037f0000000000000000000000000000000000000000000000000000000000000000811660248301526000919088169063dd62ed3e90604401602060405180830381865afa158015610742573d6000803e3d6000fd5b505050506040513d601f19601f820116820180604052508101906107669190611e6e565b9050858110156107d9576107a56001600160a01b0388167f000000000000000000000000000000000000000000000000000000000000000060006116ed565b6107d96001600160a01b0388167f0000000000000000000000000000000000000000000000000000000000000000886116ed565b604080516002808252606082018352600092602083019080368337019050509050878160008151811061080e5761080e611e9d565b60200260200101906001600160a01b031690816001600160a01b0316815250507f00000000000000000000000000000000000000000000000000000000000000008160018151811061086257610862611e9d565b6001600160a01b03928316602091820292909201015260405163676528d160e01b81526000917f0000000000000000000000000000000000000000000000000000000000000000169063676528d1906108c7908b908b90879033908d90600401611ef7565b6000604051808303816000875af11580156108e6573d6000803e3d6000fd5b505050506040513d6000823e601f3d908101601f1916820160405261090e9190810190611f33565b905060006001600160a01b0316896001600160a01b0316336001600160a01b03167f714ced76bb176c3b89253dc61d57c4a58a2c2ff280cb04c6620cc520ae99295f8b8560018151811061096457610964611e9d565b60209081029190910181015160408051938452918301528101899052606081018a905260800160405180910390a450505050506109a060018055565b50505050565b6109ae611802565b6109b661185c565b565b6109c0611802565b6109c86115e3565b6001600160a01b038116610a125760405162461bcd60e51b8152602060048201526011602482015270125b9d985b1a59081c9958da5c1a595b9d607a1b6044820152606401610488565b60006001600160a01b038316610ac5574790506000826001600160a01b03168260405160006040518083038185875af1925050503d8060008114610a72576040519150601f19603f3d011682016040523d82523d6000602084013e610a77565b606091505b5050905080610abf5760405162461bcd60e51b815260206004820152601460248201527310559056081d1c985b9cd9995c8819985a5b195960621b6044820152606401610488565b50610b43565b6040516370a0823160e01b81523060048201526001600160a01b038416906370a0823190602401602060405180830381865afa158015610b09573d6000803e3d6000fd5b505050506040513d601f19601f82011682018060405250810190610b2d9190611e6e565b9050610b436001600160a01b03841683836118ae565b816001600160a01b0316836001600160a01b03167faaeda929aa102e867049528ec7cd2499e3a2f8846e736ae7935f234dfbf500d983604051610b8891815260200190565b60405180910390a350610b9a60018055565b5050565b610ba6611802565b6109b660006118de565b610bb8611802565b6109b661192e565b610bc86115e3565b610bd061163c565b60003411610c115760405162461bcd60e51b815260206004820152600e60248201526d09aeae6e840e6cadcc84082ac82b60931b6044820152606401610488565b6001600160a01b038316610c375760405162461bcd60e51b815260040161048890611db7565b428111610c565760405162461bcd60e51b815260040161048890611de6565b610c626104b042611e1d565b811115610c815760405162461bcd60e51b815260040161048890611e44565b7f00000000000000000000000000000000000000000000000000000000000000006001600160a01b0316639853fc386040518163ffffffff1660e01b8152600401602060405180830381865afa158015610cdf573d6000803e3d6000fd5b505050506040513d601f19601f82011682018060405250810190610d039190611d53565b610d675760007f00000000000000000000000000000000000000000000000000000000000000006001600160a01b0316639f615ee16040518163ffffffff1660e01b815260040160a060405180830381865afa1580156105e7573d6000803e3d6000fd5b6000807f00000000000000000000000000000000000000000000000000000000000000006001600160a01b0316639f615ee16040518163ffffffff1660e01b815260040160a060405180830381865afa158015610dc8573d6000803e3d6000fd5b505050506040513d601f19601f82011682018060405250810190610dec9190611d6e565b505050915091506000600267ffffffffffffffff811115610e0f57610e0f611e87565b604051908082528060200260200182016040528015610e38578160200160208202803683370190505b5090507f000000000000000000000000000000000000000000000000000000000000000081600081518110610e6f57610e6f611e9d565b60200260200101906001600160a01b031690816001600160a01b0316815250508581600181518110610ea357610ea3611e9d565b6001600160a01b03928316602091820292909201015260405163a2a1623d60e01b81526000917f0000000000000000000000000000000000000000000000000000000000000000169063a2a1623d903490610f08908a90879033908c90600401611ff1565b60006040518083038185885af1158015610f26573d6000803e3d6000fd5b50505050506040513d6000823e601f3d908101601f19168201604052610f4f9190810190611f33565b9050866001600160a01b031660006001600160a01b0316336001600160a01b03167f714ced76bb176c3b89253dc61d57c4a58a2c2ff280cb04c6620cc520ae99295f3485600181518110610fa557610fa5611e9d565b602090810291909101810151604080519384529183015281018890526060810189905260800160405180910390a450505050610fe060018055565b505050565b610fed6115e3565b610ff561163c565b600083116110455760405162461bcd60e51b815260206004820152601d60248201527f416d6f756e74206d7573742062652067726561746572207468616e20300000006044820152606401610488565b6001600160a01b0385161580159061106557506001600160a01b03841615155b6110815760405162461bcd60e51b815260040161048890611db7565b836001600160a01b0316856001600160a01b0316036110e25760405162461bcd60e51b815260206004820152601860248201527f546f6b656e73206d75737420626520646966666572656e7400000000000000006044820152606401610488565b4281116111015760405162461bcd60e51b815260040161048890611de6565b61110d6104b042611e1d565b81111561112c5760405162461bcd60e51b815260040161048890611e44565b7f00000000000000000000000000000000000000000000000000000000000000006001600160a01b0316639853fc386040518163ffffffff1660e01b8152600401602060405180830381865afa15801561118a573d6000803e3d6000fd5b505050506040513d601f19601f820116820180604052508101906111ae9190611d53565b6112125760007f00000000000000000000000000000000000000000000000000000000000000006001600160a01b0316639f615ee16040518163ffffffff1660e01b815260040160a060405180830381865afa1580156105e7573d6000803e3d6000fd5b6000807f00000000000000000000000000000000000000000000000000000000000000006001600160a01b0316639f615ee16040518163ffffffff1660e01b815260040160a060405180830381865afa158015611273573d6000803e3d6000fd5b505050506040513d601f19601f820116820180604052508101906112979190611d6e565b509294509092506112b69150506001600160a01b038816333088611682565b604051636eb1769f60e11b81523060048201526001600160a01b037f0000000000000000000000000000000000000000000000000000000000000000811660248301526000919089169063dd62ed3e90604401602060405180830381865afa158015611326573d6000803e3d6000fd5b505050506040513d601f19601f8201168201806040525081019061134a9190611e6e565b9050858110156113bd576113896001600160a01b0389167f000000000000000000000000000000000000000000000000000000000000000060006116ed565b6113bd6001600160a01b0389167f0000000000000000000000000000000000000000000000000000000000000000886116ed565b60408051600280825260608201835260009260208301908036833701905050905088816000815181106113f2576113f2611e9d565b60200260200101906001600160a01b031690816001600160a01b031681525050878160018151811061142657611426611e9d565b6001600160a01b0392831660209182029290920101526040516338ed173960e01b81526000917f000000000000000000000000000000000000000000000000000000000000000016906338ed17399061148b908b908b90879033908d90600401611ef7565b6000604051808303816000875af11580156114aa573d6000803e3d6000fd5b505050506040513d6000823e601f3d908101601f191682016040526114d29190810190611f33565b9050886001600160a01b03168a6001600160a01b0316336001600160a01b03167f714ced76bb176c3b89253dc61d57c4a58a2c2ff280cb04c6620cc520ae99295f8b8560018151811061152757611527611e9d565b60209081029190910181015160408051938452918301528101899052606081018a905260800160405180910390a4505050505061156360018055565b5050505050565b611572611802565b6001600160a01b0381166115d75760405162461bcd60e51b815260206004820152602660248201527f4f776e61626c653a206e6577206f776e657220697320746865207a65726f206160448201526564647265737360d01b6064820152608401610488565b6115e0816118de565b50565b6002600154036116355760405162461bcd60e51b815260206004820152601f60248201527f5265656e7472616e637947756172643a207265656e7472616e742063616c6c006044820152606401610488565b6002600155565b60025460ff16156109b65760405162461bcd60e51b815260206004820152601060248201526f14185d5cd8589b194e881c185d5cd95960821b6044820152606401610488565b6040516001600160a01b03808516602483015283166044820152606481018290526109a09085906323b872dd60e01b906084015b60408051601f198184030181529190526020810180516001600160e01b03166001600160e01b03199093169290921790915261196b565b8015806117675750604051636eb1769f60e11b81523060048201526001600160a01b03838116602483015284169063dd62ed3e90604401602060405180830381865afa158015611741573d6000803e3d6000fd5b505050506040513d601f19601f820116820180604052508101906117659190611e6e565b155b6117d25760405162461bcd60e51b815260206004820152603660248201527f5361666545524332303a20617070726f76652066726f6d206e6f6e2d7a65726f60448201527520746f206e6f6e2d7a65726f20616c6c6f77616e636560501b6064820152608401610488565b6040516001600160a01b038316602482015260448101829052610fe090849063095ea7b360e01b906064016116b6565b6000546001600160a01b031633146109b65760405162461bcd60e51b815260206004820181905260248201527f4f776e61626c653a2063616c6c6572206973206e6f7420746865206f776e65726044820152606401610488565b611864611a40565b6002805460ff191690557f5db9ee0a495bf2e6ff9c91a7834c1ba4fdd244a5e8aa4e537bd38aeae4b073aa335b6040516001600160a01b03909116815260200160405180910390a1565b6040516001600160a01b038316602482015260448101829052610fe090849063a9059cbb60e01b906064016116b6565b600080546001600160a01b038381166001600160a01b0319831681178455604051919092169283917f8be0079c531659141344cd1fd0a4f28419497f9722a3daafe3b4186f6b6457e09190a35050565b61193661163c565b6002805460ff191660011790557f62e78cea01bee320cd4e420270b5ea74000d11b0c9f74754ebdbfc544b05a2586118913390565b60006119c0826040518060400160405280602081526020017f5361666545524332303a206c6f772d6c6576656c2063616c6c206661696c6564815250856001600160a01b0316611a899092919063ffffffff16565b90508051600014806119e15750808060200190518101906119e19190611d53565b610fe05760405162461bcd60e51b815260206004820152602a60248201527f5361666545524332303a204552433230206f7065726174696f6e20646964206e6044820152691bdd081cdd58d8d9595960b21b6064820152608401610488565b60025460ff166109b65760405162461bcd60e51b815260206004820152601460248201527314185d5cd8589b194e881b9bdd081c185d5cd95960621b6044820152606401610488565b6060611a988484600085611aa0565b949350505050565b606082471015611b015760405162461bcd60e51b815260206004820152602660248201527f416464726573733a20696e73756666696369656e742062616c616e636520666f6044820152651c8818d85b1b60d21b6064820152608401610488565b600080866001600160a01b03168587604051611b1d919061204a565b60006040518083038185875af1925050503d8060008114611b5a576040519150601f19603f3d011682016040523d82523d6000602084013e611b5f565b606091505b5091509150611b7087838387611b7b565b979650505050505050565b60608315611bea578251600003611be3576001600160a01b0385163b611be35760405162461bcd60e51b815260206004820152601d60248201527f416464726573733a2063616c6c20746f206e6f6e2d636f6e74726163740000006044820152606401610488565b5081611a98565b611a988383815115611bff5781518083602001fd5b8060405162461bcd60e51b81526004016104889190612066565b80356001600160a01b0381168114611c3057600080fd5b919050565b60008060008060808587031215611c4b57600080fd5b611c5485611c19565b966020860135965060408601359560600135945092505050565b60008060408385031215611c8157600080fd5b611c8a83611c19565b9150611c9860208401611c19565b90509250929050565b600080600060608486031215611cb657600080fd5b611cbf84611c19565b95602085013595506040909401359392505050565b600080600080600060a08688031215611cec57600080fd5b611cf586611c19565b9450611d0360208701611c19565b94979496505050506040830135926060810135926080909101359150565b600060208284031215611d3357600080fd5b611d3c82611c19565b9392505050565b80518015158114611c3057600080fd5b600060208284031215611d6557600080fd5b611d3c82611d43565b600080600080600060a08688031215611d8657600080fd5b85519450602086015193506040860151925060608601519150611dab60808701611d43565b90509295509295909350565b602080825260159082015274496e76616c696420746f6b656e206164647265737360581b604082015260600190565b6020808252601a908201527f446561646c696e65206d75737420626520696e20667574757265000000000000604082015260600190565b80820180821115611e3e57634e487b7160e01b600052601160045260246000fd5b92915050565b60208082526010908201526f2232b0b23634b732903a37b7903330b960811b604082015260600190565b600060208284031215611e8057600080fd5b5051919050565b634e487b7160e01b600052604160045260246000fd5b634e487b7160e01b600052603260045260246000fd5b600081518084526020808501945080840160005b83811015611eec5781516001600160a01b031687529582019590820190600101611ec7565b509495945050505050565b85815284602082015260a060408201526000611f1660a0830186611eb3565b6001600160a01b0394909416606083015250608001529392505050565b60006020808385031215611f4657600080fd5b825167ffffffffffffffff80821115611f5e57600080fd5b818501915085601f830112611f7257600080fd5b815181811115611f8457611f84611e87565b8060051b604051601f19603f83011681018181108582111715611fa957611fa9611e87565b604052918252848201925083810185019188831115611fc757600080fd5b938501935b82851015611fe557845184529385019392850192611fcc565b98975050505050505050565b84815260806020820152600061200a6080830186611eb3565b6001600160a01b03949094166040830152506060015292915050565b60005b83811015612041578181015183820152602001612029565b50506000910152565b6000825161205c818460208701612026565b9190910192915050565b6020815260008251806020840152612085816040850160208701612026565b601f01601f1916919091016040019291505056fea26469706673582212209fa2cb732d8d20efcda64f0d3786c65e184ffb4da27c065111101d1eba0577d164736f6c63430008130033",
  "linkReferences": {},
  "deployedLinkReferences": {}
}