{
  "_format": "hh-sol-artifact-1",
  "contractName": "PriceOracle",
  "sourceName": "contracts/PriceOracle.sol",
  "abi": [
    {
      "inputs": [],
      "stateMutability": "nonpayable",
      "type": "constructor"
    },
    {
      "anonymous": false,
      "inputs": [
        {
          "indexed": false,
          "internalType": "uint256",
          "name": "oldThreshold",
          "type": "uint256"
        },
        {
          "indexed": false,
          "internalType": "uint256",
          "name": "newThreshold",
          "type": "uint256"
        }
      ],
      "name": "ConfidenceThresholdUpdated",
      "type": "event"
    },
    {
      "anonymous": false,
      "inputs": [
        {
          "indexed": true,
          "internalType": "address",
          "name": "previousOwner",
          "type": "address"
        },
        {
          "indexed": true,
          "internalType": "address",
          "name": "newOwner",
          "type": "address"
        }
      ],
      "name": "OwnershipTransferred",
      "type": "event"
    },
    {
      "anonymous": false,
      "inputs": [
        {
          "indexed": true,
          "internalType": "uint256",
          "name": "price",
          "type": "uint256"
        },
        {
          "indexed": true,
          "internalType": "uint256",
          "name": "confidence",
          "type": "uint256"
        },
        {
          "indexed": false,
          "internalType": "uint256",
          "name": "timestamp",
          "type": "uint256"
        },
        {
          "indexed": false,
          "internalType": "uint256",
          "name": "expiresAt",
          "type": "uint256"
        }
      ],
      "name": "PredictionSet",
      "type": "event"
    },
    {
      "anonymous": false,
      "inputs": [
        {
          "indexed": false,
          "internalType": "bool",
          "name": "isValid",
          "type": "bool"
        },
        {
          "indexed": false,
          "internalType": "uint256",
          "name": "confidence",
          "type": "uint256"
        },
        {
          "indexed": false,
          "internalType": "uint256",
          "name": "timestamp",
          "type": "uint256"
        }
      ],
      "name": "PredictionValidated",
      "type": "event"
    },
    {
      "inputs": [],
      "name": "MAX_CONFIDENCE",
      "outputs": [
        {
          "internalType": "uint256",
          "name": "",
          "type": "uint256"
        }
      ],
      "stateMutability": "view",
      "type": "function"
    },
    {
      "inputs": [],
      "name": "PREDICTION_EXPIRY_TIME",
      "outputs": [
        {
          "internalType": "uint256",
          "name": "",
          "type": "uint256"
        }
      ],
      "stateMutability": "view",
      "type": "function"
    },
    {
      "inputs": [],
      "name": "currentPrediction",
      "outputs": [
        {
          "internalType": "uint256",
          "name": "price",
          "type": "uint256"
        },
        {
          "internalType": "uint256",
          "name": "confidence",
          "type": "uint256"
        },
        {
          "internalType": "uint256",
          "name": "timestamp",
          "type": "uint256"
        },
        {
          "internalType": "uint256",
          "name": "expiresAt",
          "type": "uint256"
        },
        {
          "internalType": "bool",
          "name": "isValid",
          "type": "bool"
        }
      ],
      "stateMutability": "view",
      "type": "function"
    },
    {
      "inputs": [],
      "name": "getPrediction",
      "outputs": [
        {
          "internalType": "uint256",
          "name": "price",
          "type": "uint256"
        },
        {
          "internalType": "uint256",
          "name": "confidence",
          "type": "uint256"
        },
        {
          "internalType": "uint256",
          "name": "timestamp",
          "type": "uint256"
        },
        {
          "internalType": "uint256",
          "name": "expiresAt",
          "type": "uint256"
        },
        {
          "internalType": "bool",
          "name": "isValid",
          "type": "bool"
        }
      ],
      "stateMutability": "view",
      "type": "function"
    },
    {
      "inputs": [],
      "name": "getPredictionAge",
      "outputs": [
        {
          "internalType": "uint256",
          "name": "",
          "type": "uint256"
        }
      ],
      "stateMutability": "view",
      "type": "function"
    },
    {
      "inputs": [],
      "name": "getTimeUntilExpiry",
      "outputs": [
        {
          "internalType": "uint256",
          "name": "",
          "type": "uint256"
        }
      ],
      "stateMutability": "view",
      "type": "function"
    },
    {
      "inputs": [],
      "name": "invalidatePrediction",
      "outputs": [],
      "stateMutability": "nonpayable",
      "type": "function"
    },
    {
      "inputs": [
        {
          "internalType": "uint256",
          "name": "minConfidence",
          "type": "uint256"
        }
      ],
      "name": "isConfidenceAboveThreshold",
      "outputs": [
        {
          "internalType": "bool",
          "name": "",
          "type": "bool"
        }
      ],
      "stateMutability": "view",
      "type": "function"
    },
    {
      "inputs": [],
      "name": "isPredictionValid",
      "outputs": [
        {
          "internalType": "bool",
          "name": "",
          "type": "bool"
        }
      ],
      "stateMutability": "view",
      "type": "function"
    },
    {
      "inputs": [],
      "name": "minConfidenceThreshold",
      "outputs": [
        {
          "internalType": "uint256",
          "name": "",
          "type": "uint256"
        }
      ],
      "stateMutability": "view",
      "type": "function"
    },
    {
      "inputs": [],
      "name": "owner",
      "outputs": [
        {
          "internalType": "address",
          "name": "",
          "type": "address"
        }
      ],
      "stateMutability": "view",
      "type": "function"
    },
    {
      "inputs": [],
      "name": "renounceOwnership",
      "outputs": [],
      "stateMutability": "nonpayable",
      "type": "function"
    },
    {
      "inputs": [
        {
          "internalType": "uint256",
          "name": "price",
          "type": "uint256"
        },
        {
          "internalType": "uint256",
          "name": "confidence",
          "type": "uint256"
        },
        {
          "internalType": "uint256",
          "name": "expiresAt",
          "type": "uint256"
        }
      ],
      "name": "setPrediction",
      "outputs": [],
      "stateMutability": "nonpayable",
      "type": "function"
    },
    {
      "inputs": [
        {
          "internalType": "address",
          "name": "newOwner",
          "type": "address"
        }
      ],
      "name": "transferOwnership",
      "outputs": [],
      "stateMutability": "nonpayable",
      "type": "function"
    },
    {
      "inputs": [
        {
          "internalType": "uint256",
          "name": "newThreshold",
          "type": "uint256"
        }
      ],
      "name": "updateConfidenceThreshold",
      "outputs": [],
      "stateMutability": "nonpayable",
      "type": "function"
    }
  ],
  "bytecode": "0x6080604052604660065534801561001557600080fd5b5061001f33610024565b610074565b600080546001600160a01b038381166001600160a01b0319831681178455604051919092169283917f8be0079c531659141344cd1fd0a4f28419497f9722a3daafe3b4186f6b6457e09190a35050565b610833806100836000396000f3fe608060405234801561001057600080fd5b50600436106100f55760003560e01c80637484918511610097578063c53988d911610066578063c53988d9146101f0578063d18e818c14610203578063e50a9b201461020b578063f2fde38b1461021357600080fd5b806374849185146101ad5780638da5cb5b146101b65780639853fc38146101d15780639f615ee1146101d957600080fd5b806358c0c828116100d357806358c0c828146101675780635ff162f61461018a5780636c78449c1461019d578063715018a6146101a557600080fd5b806305e682a5146100fa57806334ab8d2a1461010457806334d5959d14610120575b600080fd5b610102610226565b005b61010d610e1081565b6040519081526020015b60405180910390f35b60015460025460035460045460055461013d949392919060ff1685565b6040805195865260208601949094529284019190915260608301521515608082015260a001610117565b61017a610175366004610746565b61027d565b6040519015158152602001610117565b610102610198366004610746565b6102de565b61010d606481565b61010261037c565b61010d60065481565b6000546040516001600160a01b039091168152602001610117565b61017a610390565b60015460025460035460045460055460ff1661013d565b6101026101fe36600461075f565b61039f565b61010d610592565b61010d6105b1565b61010261022136600461078b565b6105de565b61022e610657565b6005805460ff19169055600254604080516000815260208101929092524282820152517fed5a6fa1f289cd60595e1cfffe89c9265256b3fa7645aff39eefddc473d140109181900360600190a1565b600060648211156102d55760405162461bcd60e51b815260206004820152601b60248201527f5468726573686f6c642063616e6e6f742065786365656420313030000000000060448201526064015b60405180910390fd5b50600254101590565b6102e6610657565b60648111156103375760405162461bcd60e51b815260206004820152601b60248201527f5468726573686f6c642063616e6e6f742065786365656420313030000000000060448201526064016102cc565b600680549082905560408051828152602081018490527f261c83c5299712f179f7e7ecfa195d1e1cc9d3216838a97516668b1d088156f7910160405180910390a15050565b610384610657565b61038e60006106b1565b565b600061039a610701565b905090565b6103a7610657565b600083116103f75760405162461bcd60e51b815260206004820152601c60248201527f5072696365206d7573742062652067726561746572207468616e20300000000060448201526064016102cc565b60648211156104485760405162461bcd60e51b815260206004820152601c60248201527f436f6e666964656e63652063616e6e6f7420657863656564203130300000000060448201526064016102cc565b4281116104975760405162461bcd60e51b815260206004820152601c60248201527f457870697279206d75737420626520696e20746865206675747572650000000060448201526064016102cc565b6104a3610e10426107d1565b8111156105075760405162461bcd60e51b815260206004820152602c60248201527f4578706972792063616e6e6f7420657863656564203120686f7572206d61786960448201526b6d756d2076616c696469747960a01b60648201526084016102cc565b6040805160a08101825284815260208082018590524282840181905260608301859052600160809093018390528683556002869055600381905560048590556005805460ff191690931790925582519182528101839052839185917ffd129a0f2727cdb47233d30eb4ef56b3a00ac5c7340aadbf7c3005f9ba61b6f6910160405180910390a3505050565b60035460009081036105a45750600090565b60035461039a90426107ea565b60045460009015806105c557506004544210155b156105d05750600090565b60045461039a9042906107ea565b6105e6610657565b6001600160a01b03811661064b5760405162461bcd60e51b815260206004820152602660248201527f4f776e61626c653a206e6577206f776e657220697320746865207a65726f206160448201526564647265737360d01b60648201526084016102cc565b610654816106b1565b50565b6000546001600160a01b0316331461038e5760405162461bcd60e51b815260206004820181905260248201527f4f776e61626c653a2063616c6c6572206973206e6f7420746865206f776e657260448201526064016102cc565b600080546001600160a01b038381166001600160a01b0319831681178455604051919092169283917f8be0079c531659141344cd1fd0a4f28419497f9722a3daafe3b4186f6b6457e09190a35050565b60055460009060ff16801561071857506004544211155b80156107335750600354610e109061073090426107ea565b11155b801561039a575050600654600254101590565b60006020828403121561075857600080fd5b5035919050565b60008060006060848603121561077457600080fd5b505081359360208301359350604090920135919050565b60006020828403121561079d57600080fd5b81356001600160a01b03811681146107b457600080fd5b9392505050565b634e487b7160e01b600052601160045260246000fd5b808201808211156107e4576107e46107bb565b92915050565b818103818111156107e4576107e46107bb56fea26469706673582212204dcabc5e2f8f5919ce884abde651880fd4a18fe5b6a8b4dec96b0d84f8f8f3a064736f6c63430008130033",
  "linkReferences": {},
  "deployedLinkReferences": {}
}